{
  "_format": "hh-sol-artifact-1",
  "contractName": "CashGrabNFT",
  "sourceName": "contracts/CashGrabNFT.sol",
  "abi": [
    {
      "inputs": [],
      "stateMutability": "nonpayable",
      "type": "constructor"
    },
    {
      "anonymous": false,
      "inputs": [
        {
          "indexed": true,
          "internalType": "address",
          "name": "owner",
          "type": "address"
        },
        {
          "indexed": true,
          "internalType": "address",
          "name": "approved",
          "type": "address"
        },
        {
          "indexed": true,
          "internalType": "uint256",
          "name": "tokenId",
          "type": "uint256"
        }
      ],
      "name": "Approval",
      "type": "event"
    },
    {
      "anonymous": false,
      "inputs": [
        {
          "indexed": true,
          "internalType": "address",
          "name": "owner",
          "type": "address"
        },
        {
          "indexed": true,
          "internalType": "address",
          "name": "operator",
          "type": "address"
        },
        {
          "indexed": false,
          "internalType": "bool",
          "name": "approved",
          "type": "bool"
        }
      ],
      "name": "ApprovalForAll",
      "type": "event"
    },
    {
      "anonymous": false,
      "inputs": [
        {
          "indexed": true,
          "internalType": "address",
          "name": "from",
          "type": "address"
        },
        {
          "indexed": true,
          "internalType": "address",
          "name": "to",
          "type": "address"
        },
        {
          "indexed": true,
          "internalType": "uint256",
          "name": "tokenId",
          "type": "uint256"
        }
      ],
      "name": "Transfer",
      "type": "event"
    },
    {
      "inputs": [
        {
          "internalType": "address",
          "name": "to",
          "type": "address"
        },
        {
          "internalType": "uint256",
          "name": "tokenId",
          "type": "uint256"
        }
      ],
      "name": "approve",
      "outputs": [],
      "stateMutability": "nonpayable",
      "type": "function"
    },
    {
      "inputs": [
        {
          "internalType": "address",
          "name": "owner",
          "type": "address"
        }
      ],
      "name": "balanceOf",
      "outputs": [
        {
          "internalType": "uint256",
          "name": "",
          "type": "uint256"
        }
      ],
      "stateMutability": "view",
      "type": "function"
    },
    {
      "inputs": [
        {
          "internalType": "uint256",
          "name": "tokenId",
          "type": "uint256"
        }
      ],
      "name": "getApproved",
      "outputs": [
        {
          "internalType": "address",
          "name": "",
          "type": "address"
        }
      ],
      "stateMutability": "view",
      "type": "function"
    },
    {
      "inputs": [],
      "name": "getTokenOfUser",
      "outputs": [
        {
          "internalType": "uint256[]",
          "name": "",
          "type": "uint256[]"
        }
      ],
      "stateMutability": "view",
      "type": "function"
    },
    {
      "inputs": [
        {
          "internalType": "address",
          "name": "owner",
          "type": "address"
        },
        {
          "internalType": "address",
          "name": "operator",
          "type": "address"
        }
      ],
      "name": "isApprovedForAll",
      "outputs": [
        {
          "internalType": "bool",
          "name": "",
          "type": "bool"
        }
      ],
      "stateMutability": "view",
      "type": "function"
    },
    {
      "inputs": [],
      "name": "mint",
      "outputs": [
        {
          "internalType": "uint256",
          "name": "",
          "type": "uint256"
        }
      ],
      "stateMutability": "nonpayable",
      "type": "function"
    },
    {
      "inputs": [],
      "name": "name",
      "outputs": [
        {
          "internalType": "string",
          "name": "",
          "type": "string"
        }
      ],
      "stateMutability": "view",
      "type": "function"
    },
    {
      "inputs": [
        {
          "internalType": "uint256",
          "name": "tokenId",
          "type": "uint256"
        }
      ],
      "name": "ownerOf",
      "outputs": [
        {
          "internalType": "address",
          "name": "",
          "type": "address"
        }
      ],
      "stateMutability": "view",
      "type": "function"
    },
    {
      "inputs": [
        {
          "internalType": "uint256",
          "name": "tokenId",
          "type": "uint256"
        }
      ],
      "name": "pickRandomFirstWord",
      "outputs": [
        {
          "internalType": "string",
          "name": "",
          "type": "string"
        }
      ],
      "stateMutability": "view",
      "type": "function"
    },
    {
      "inputs": [
        {
          "internalType": "uint256",
          "name": "tokenId",
          "type": "uint256"
        }
      ],
      "name": "pickRandomSecondWord",
      "outputs": [
        {
          "internalType": "string",
          "name": "",
          "type": "string"
        }
      ],
      "stateMutability": "view",
      "type": "function"
    },
    {
      "inputs": [
        {
          "internalType": "uint256",
          "name": "tokenId",
          "type": "uint256"
        }
      ],
      "name": "pickRandomThirdWord",
      "outputs": [
        {
          "internalType": "string",
          "name": "",
          "type": "string"
        }
      ],
      "stateMutability": "view",
      "type": "function"
    },
    {
      "inputs": [
        {
          "internalType": "address",
          "name": "from",
          "type": "address"
        },
        {
          "internalType": "address",
          "name": "to",
          "type": "address"
        },
        {
          "internalType": "uint256",
          "name": "tokenId",
          "type": "uint256"
        }
      ],
      "name": "safeTransferFrom",
      "outputs": [],
      "stateMutability": "nonpayable",
      "type": "function"
    },
    {
      "inputs": [
        {
          "internalType": "address",
          "name": "from",
          "type": "address"
        },
        {
          "internalType": "address",
          "name": "to",
          "type": "address"
        },
        {
          "internalType": "uint256",
          "name": "tokenId",
          "type": "uint256"
        },
        {
          "internalType": "bytes",
          "name": "_data",
          "type": "bytes"
        }
      ],
      "name": "safeTransferFrom",
      "outputs": [],
      "stateMutability": "nonpayable",
      "type": "function"
    },
    {
      "inputs": [
        {
          "internalType": "address",
          "name": "operator",
          "type": "address"
        },
        {
          "internalType": "bool",
          "name": "approved",
          "type": "bool"
        }
      ],
      "name": "setApprovalForAll",
      "outputs": [],
      "stateMutability": "nonpayable",
      "type": "function"
    },
    {
      "inputs": [
        {
          "internalType": "bytes4",
          "name": "interfaceId",
          "type": "bytes4"
        }
      ],
      "name": "supportsInterface",
      "outputs": [
        {
          "internalType": "bool",
          "name": "",
          "type": "bool"
        }
      ],
      "stateMutability": "view",
      "type": "function"
    },
    {
      "inputs": [],
      "name": "symbol",
      "outputs": [
        {
          "internalType": "string",
          "name": "",
          "type": "string"
        }
      ],
      "stateMutability": "view",
      "type": "function"
    },
    {
      "inputs": [
        {
          "internalType": "uint256",
          "name": "tokenId",
          "type": "uint256"
        }
      ],
      "name": "tokenURI",
      "outputs": [
        {
          "internalType": "string",
          "name": "",
          "type": "string"
        }
      ],
      "stateMutability": "view",
      "type": "function"
    },
    {
      "inputs": [
        {
          "internalType": "address",
          "name": "from",
          "type": "address"
        },
        {
          "internalType": "address",
          "name": "to",
          "type": "address"
        },
        {
          "internalType": "uint256",
          "name": "tokenId",
          "type": "uint256"
        }
      ],
      "name": "transferFrom",
      "outputs": [],
      "stateMutability": "nonpayable",
      "type": "function"
    },
    {
      "inputs": [
        {
          "internalType": "address",
          "name": "",
          "type": "address"
        },
        {
          "internalType": "uint256",
          "name": "",
          "type": "uint256"
        }
      ],
      "name": "userOwnedTokens",
      "outputs": [
        {
          "internalType": "uint256",
          "name": "",
          "type": "uint256"
        }
      ],
      "stateMutability": "view",
      "type": "function"
    }
  ],
  "bytecode": "0x608060405260405180610160016040528061012f8152602001620042ad61012f9139600990805190602001906200003892919062000567565b506040518060c001604052806040518060400160405280600981526020017f594f55525f574f5244000000000000000000000000000000000000000000000081525081526020016040518060400160405280600981526020017f594f55525f574f5244000000000000000000000000000000000000000000000081525081526020016040518060400160405280600981526020017f594f55525f574f5244000000000000000000000000000000000000000000000081525081526020016040518060400160405280600981526020017f594f55525f574f5244000000000000000000000000000000000000000000000081525081526020016040518060400160405280600981526020017f594f55525f574f5244000000000000000000000000000000000000000000000081525081526020016040518060400160405280600981526020017f594f55525f574f52440000000000000000000000000000000000000000000000815250815250600a906006620001b6929190620005f8565b506040518060c001604052806040518060400160405280600981526020017f594f55525f574f5244000000000000000000000000000000000000000000000081525081526020016040518060400160405280600981526020017f594f55525f574f5244000000000000000000000000000000000000000000000081525081526020016040518060400160405280600981526020017f594f55525f574f5244000000000000000000000000000000000000000000000081525081526020016040518060400160405280600981526020017f594f55525f574f5244000000000000000000000000000000000000000000000081525081526020016040518060400160405280600981526020017f594f55525f574f5244000000000000000000000000000000000000000000000081525081526020016040518060400160405280600981526020017f594f55525f574f52440000000000000000000000000000000000000000000000815250815250600b90600662000334929190620005f8565b506040518060c001604052806040518060400160405280600981526020017f594f55525f574f5244000000000000000000000000000000000000000000000081525081526020016040518060400160405280600981526020017f594f55525f574f5244000000000000000000000000000000000000000000000081525081526020016040518060400160405280600981526020017f594f55525f574f5244000000000000000000000000000000000000000000000081525081526020016040518060400160405280600981526020017f594f55525f574f5244000000000000000000000000000000000000000000000081525081526020016040518060400160405280600981526020017f594f55525f574f5244000000000000000000000000000000000000000000000081525081526020016040518060400160405280600981526020017f594f55525f574f52440000000000000000000000000000000000000000000000815250815250600c906006620004b2929190620005f8565b50348015620004c057600080fd5b506040518060400160405280600b81526020017f43617368477261624e46540000000000000000000000000000000000000000008152506040518060400160405280600281526020017f434200000000000000000000000000000000000000000000000000000000000081525081600090805190602001906200054592919062000567565b5080600190805190602001906200055e92919062000567565b50505062000751565b8280546200057590620006ec565b90600052602060002090601f016020900481019282620005995760008555620005e5565b82601f10620005b457805160ff1916838001178555620005e5565b82800160010185558215620005e5579182015b82811115620005e4578251825591602001919060010190620005c7565b5b509050620005f491906200065f565b5090565b8280548282559060005260206000209081019282156200064c579160200282015b828111156200064b5782518290805190602001906200063a92919062000567565b509160200191906001019062000619565b5b5090506200065b91906200067e565b5090565b5b808211156200067a57600081600090555060010162000660565b5090565b5b80821115620006a25760008181620006989190620006a6565b506001016200067f565b5090565b508054620006b490620006ec565b6000825580601f10620006c85750620006e9565b601f016020900490600052602060002090810190620006e891906200065f565b5b50565b600060028204905060018216806200070557607f821691505b602082108114156200071c576200071b62000722565b5b50919050565b7f4e487b7100000000000000000000000000000000000000000000000000000000600052602260045260246000fd5b613b4c80620007616000396000f3fe608060405234801561001057600080fd5b50600436106101215760003560e01c80636352211e116100ad578063b187301f11610071578063b187301f1461032e578063b88d4fde1461035e578063c575757a1461037a578063c87b56dd146103aa578063e985e9c5146103da57610121565b80636352211e1461027657806370a08231146102a657806395d89b41146102d657806397566b81146102f4578063a22cb4651461031257610121565b80631249c58b116100f45780631249c58b146101c057806314b924e2146101de57806323b872dd1461020e5780632de38d681461022a57806342842e0e1461025a57610121565b806301ffc9a71461012657806306fdde0314610156578063081812fc14610174578063095ea7b3146101a4575b600080fd5b610140600480360381019061013b9190612606565b61040a565b60405161014d9190612d8e565b60405180910390f35b61015e6104ec565b60405161016b9190612da9565b60405180910390f35b61018e60048036038101906101899190612658565b61057e565b60405161019b9190612d05565b60405180910390f35b6101be60048036038101906101b991906125ca565b610603565b005b6101c861071b565b6040516101d59190612fcb565b60405180910390f35b6101f860048036038101906101f391906125ca565b610896565b6040516102059190612fcb565b60405180910390f35b610228600480360381019061022391906124c4565b6108c7565b005b610244600480360381019061023f9190612658565b610927565b6040516102519190612da9565b60405180910390f35b610274600480360381019061026f91906124c4565b610a45565b005b610290600480360381019061028b9190612658565b610a65565b60405161029d9190612d05565b60405180910390f35b6102c060048036038101906102bb919061245f565b610b17565b6040516102cd9190612fcb565b60405180910390f35b6102de610bcf565b6040516102eb9190612da9565b60405180910390f35b6102fc610c61565b6040516103099190612d6c565b60405180910390f35b61032c6004803603810190610327919061258e565b610d65565b005b61034860048036038101906103439190612658565b610d7b565b6040516103559190612da9565b60405180910390f35b61037860048036038101906103739190612513565b610e99565b005b610394600480360381019061038f9190612658565b610efb565b6040516103a19190612da9565b60405180910390f35b6103c460048036038101906103bf9190612658565b611019565b6040516103d19190612da9565b60405180910390f35b6103f460048036038101906103ef9190612488565b61116b565b6040516104019190612d8e565b60405180910390f35b60007f80ac58cd000000000000000000000000000000000000000000000000000000007bffffffffffffffffffffffffffffffffffffffffffffffffffffffff1916827bffffffffffffffffffffffffffffffffffffffffffffffffffffffff191614806104d557507f5b5e139f000000000000000000000000000000000000000000000000000000007bffffffffffffffffffffffffffffffffffffffffffffffffffffffff1916827bffffffffffffffffffffffffffffffffffffffffffffffffffffffff1916145b806104e557506104e4826111ff565b5b9050919050565b6060600080546104fb90613298565b80601f016020809104026020016040519081016040528092919081815260200182805461052790613298565b80156105745780601f1061054957610100808354040283529160200191610574565b820191906000526020600020905b81548152906001019060200180831161055757829003601f168201915b5050505050905090565b600061058982611269565b6105c8576040517f08c379a00000000000000000000000000000000000000000000000000000000081526004016105bf90612f4b565b60405180910390fd5b6004600083815260200190815260200160002060009054906101000a900473ffffffffffffffffffffffffffffffffffffffff169050919050565b600061060e82610a65565b90508073ffffffffffffffffffffffffffffffffffffffff168373ffffffffffffffffffffffffffffffffffffffff16141561067f576040517f08c379a000000000000000000000000000000000000000000000000000000000815260040161067690612f8b565b60405180910390fd5b8073ffffffffffffffffffffffffffffffffffffffff1661069e6112d5565b73ffffffffffffffffffffffffffffffffffffffff1614806106cd57506106cc816106c76112d5565b61116b565b5b61070c576040517f08c379a000000000000000000000000000000000000000000000000000000000815260040161070390612e8b565b60405180910390fd5b61071683836112dd565b505050565b60006107276007611396565b600061073360076113ac565b9050600061074082610927565b9050600061074d83610d7b565b9050600061075a84610efb565b9050600083838360405160200161077393929190612bd8565b6040516020818303038152906040529050600060098260405160200161079a929190612c09565b604051602081830303815290604052905060006107df836107ba846113ba565b6040516020016107cb929190612c7c565b6040516020818303038152906040526113ba565b90506000816040516020016107f49190612ce3565b604051602081830303815290604052905061080e81611559565b61081833896115f2565b6108228882611610565b600860003373ffffffffffffffffffffffffffffffffffffffff1673ffffffffffffffffffffffffffffffffffffffff168152602001908152602001600020889080600181540180825580915050600190039060005260206000200160009091909190915055879850505050505050505090565b600860205281600052604060002081815481106108b257600080fd5b90600052602060002001600091509150505481565b6108d86108d26112d5565b82611684565b610917576040517f08c379a000000000000000000000000000000000000000000000000000000000815260040161090e90612fab565b60405180910390fd5b610922838383611762565b505050565b6060600061095b610937846119c9565b6040516020016109479190612cc1565b604051602081830303815290604052611b76565b9050600a805490508161096e9190613344565b9050600a81815481106109aa577f4e487b7100000000000000000000000000000000000000000000000000000000600052603260045260246000fd5b9060005260206000200180546109bf90613298565b80601f01602080910402602001604051908101604052809291908181526020018280546109eb90613298565b8015610a385780601f10610a0d57610100808354040283529160200191610a38565b820191906000526020600020905b815481529060010190602001808311610a1b57829003601f168201915b5050505050915050919050565b610a6083838360405180602001604052806000815250610e99565b505050565b6000806002600084815260200190815260200160002060009054906101000a900473ffffffffffffffffffffffffffffffffffffffff169050600073ffffffffffffffffffffffffffffffffffffffff168173ffffffffffffffffffffffffffffffffffffffff161415610b0e576040517f08c379a0000000000000000000000000000000000000000000000000000000008152600401610b0590612ecb565b60405180910390fd5b80915050919050565b60008073ffffffffffffffffffffffffffffffffffffffff168273ffffffffffffffffffffffffffffffffffffffff161415610b88576040517f08c379a0000000000000000000000000000000000000000000000000000000008152600401610b7f90612eab565b60405180910390fd5b600360008373ffffffffffffffffffffffffffffffffffffffff1673ffffffffffffffffffffffffffffffffffffffff168152602001908152602001600020549050919050565b606060018054610bde90613298565b80601f0160208091040260200160405190810160405280929190818152602001828054610c0a90613298565b8015610c575780601f10610c2c57610100808354040283529160200191610c57565b820191906000526020600020905b815481529060010190602001808311610c3a57829003601f168201915b5050505050905090565b60606000600860003373ffffffffffffffffffffffffffffffffffffffff1673ffffffffffffffffffffffffffffffffffffffff168152602001908152602001600020805480602002602001604051908101604052809291908181526020018280548015610cee57602002820191906000526020600020905b815481526020019060010190808311610cda575b5050505050905060005b8151811015610d5d57610d4a828281518110610d3d577f4e487b7100000000000000000000000000000000000000000000000000000000600052603260045260246000fd5b6020026020010151611ba9565b8080610d55906132fb565b915050610cf8565b508091505090565b610d77610d706112d5565b8383611c42565b5050565b60606000610daf610d8b846119c9565b604051602001610d9b9190612c5a565b604051602081830303815290604052611b76565b9050600b8054905081610dc29190613344565b9050600b8181548110610dfe577f4e487b7100000000000000000000000000000000000000000000000000000000600052603260045260246000fd5b906000526020600020018054610e1390613298565b80601f0160208091040260200160405190810160405280929190818152602001828054610e3f90613298565b8015610e8c5780601f10610e6157610100808354040283529160200191610e8c565b820191906000526020600020905b815481529060010190602001808311610e6f57829003601f168201915b5050505050915050919050565b610eaa610ea46112d5565b83611684565b610ee9576040517f08c379a0000000000000000000000000000000000000000000000000000000008152600401610ee090612fab565b60405180910390fd5b610ef584848484611daf565b50505050565b60606000610f2f610f0b846119c9565b604051602001610f1b9190612c38565b604051602081830303815290604052611b76565b9050600c8054905081610f429190613344565b9050600c8181548110610f7e577f4e487b7100000000000000000000000000000000000000000000000000000000600052603260045260246000fd5b906000526020600020018054610f9390613298565b80601f0160208091040260200160405190810160405280929190818152602001828054610fbf90613298565b801561100c5780601f10610fe15761010080835404028352916020019161100c565b820191906000526020600020905b815481529060010190602001808311610fef57829003601f168201915b5050505050915050919050565b606061102482611269565b611063576040517f08c379a000000000000000000000000000000000000000000000000000000000815260040161105a90612f2b565b60405180910390fd5b600060066000848152602001908152602001600020805461108390613298565b80601f01602080910402602001604051908101604052809291908181526020018280546110af90613298565b80156110fc5780601f106110d1576101008083540402835291602001916110fc565b820191906000526020600020905b8154815290600101906020018083116110df57829003601f168201915b50505050509050600061110d611e0b565b9050600081511415611123578192505050611166565b600082511115611158578082604051602001611140929190612bb4565b60405160208183030381529060405292505050611166565b61116184611e22565b925050505b919050565b6000600560008473ffffffffffffffffffffffffffffffffffffffff1673ffffffffffffffffffffffffffffffffffffffff16815260200190815260200160002060008373ffffffffffffffffffffffffffffffffffffffff1673ffffffffffffffffffffffffffffffffffffffff16815260200190815260200160002060009054906101000a900460ff16905092915050565b60007f01ffc9a7000000000000000000000000000000000000000000000000000000007bffffffffffffffffffffffffffffffffffffffffffffffffffffffff1916827bffffffffffffffffffffffffffffffffffffffffffffffffffffffff1916149050919050565b60008073ffffffffffffffffffffffffffffffffffffffff166002600084815260200190815260200160002060009054906101000a900473ffffffffffffffffffffffffffffffffffffffff1673ffffffffffffffffffffffffffffffffffffffff1614159050919050565b600033905090565b816004600083815260200190815260200160002060006101000a81548173ffffffffffffffffffffffffffffffffffffffff021916908373ffffffffffffffffffffffffffffffffffffffff160217905550808273ffffffffffffffffffffffffffffffffffffffff1661135083610a65565b73ffffffffffffffffffffffffffffffffffffffff167f8c5be1e5ebec7d5bd14f71427d1e84f3dd0314c0f7b2291e5b200ac8c7c3b92560405160405180910390a45050565b6001816000016000828254019250508190555050565b600081600001549050919050565b60606000825114156113dd57604051806020016040528060008152509050611554565b6000604051806060016040528060408152602001613ad7604091399050600060036002855161140c91906130cd565b6114169190613123565b60046114229190613154565b9050600060208261143391906130cd565b67ffffffffffffffff811115611472577f4e487b7100000000000000000000000000000000000000000000000000000000600052604160045260246000fd5b6040519080825280601f01601f1916602001820160405280156114a45781602001600182028036833780820191505090505b509050818152600183018586518101602084015b81831015611513576003830192508251603f8160121c168501518253600182019150603f81600c1c168501518253600182019150603f8160061c168501518253600182019150603f81168501518253600182019150506114b8565b60038951066001811461152d576002811461153d57611548565b613d3d60f01b6002830352611548565b603d60f81b60018303525b50505050508093505050505b919050565b6115ef8160405160240161156d9190612da9565b6040516020818303038152906040527f41304fac000000000000000000000000000000000000000000000000000000007bffffffffffffffffffffffffffffffffffffffffffffffffffffffff19166020820180517bffffffffffffffffffffffffffffffffffffffffffffffffffffffff8381831617835250505050611ec9565b50565b61160c828260405180602001604052806000815250611ef2565b5050565b61161982611269565b611658576040517f08c379a000000000000000000000000000000000000000000000000000000000815260040161164f90612eeb565b60405180910390fd5b8060066000848152602001908152602001600020908051906020019061167f9291906122eb565b505050565b600061168f82611269565b6116ce576040517f08c379a00000000000000000000000000000000000000000000000000000000081526004016116c590612e6b565b60405180910390fd5b60006116d983610a65565b90508073ffffffffffffffffffffffffffffffffffffffff168473ffffffffffffffffffffffffffffffffffffffff16148061174857508373ffffffffffffffffffffffffffffffffffffffff166117308461057e565b73ffffffffffffffffffffffffffffffffffffffff16145b806117595750611758818561116b565b5b91505092915050565b8273ffffffffffffffffffffffffffffffffffffffff1661178282610a65565b73ffffffffffffffffffffffffffffffffffffffff16146117d8576040517f08c379a00000000000000000000000000000000000000000000000000000000081526004016117cf90612deb565b60405180910390fd5b600073ffffffffffffffffffffffffffffffffffffffff168273ffffffffffffffffffffffffffffffffffffffff161415611848576040517f08c379a000000000000000000000000000000000000000000000000000000000815260040161183f90612e2b565b60405180910390fd5b611853838383611f4d565b61185e6000826112dd565b6001600360008573ffffffffffffffffffffffffffffffffffffffff1673ffffffffffffffffffffffffffffffffffffffff16815260200190815260200160002060008282546118ae91906131ae565b925050819055506001600360008473ffffffffffffffffffffffffffffffffffffffff1673ffffffffffffffffffffffffffffffffffffffff168152602001908152602001600020600082825461190591906130cd565b92505081905550816002600083815260200190815260200160002060006101000a81548173ffffffffffffffffffffffffffffffffffffffff021916908373ffffffffffffffffffffffffffffffffffffffff160217905550808273ffffffffffffffffffffffffffffffffffffffff168473ffffffffffffffffffffffffffffffffffffffff167fddf252ad1be2c89b69c2b068fc378daa952ba7f163c4a11628f55a4df523b3ef60405160405180910390a46119c4838383611f52565b505050565b60606000821415611a11576040518060400160405280600181526020017f30000000000000000000000000000000000000000000000000000000000000008152509050611b71565b600082905060005b60008214611a43578080611a2c906132fb565b915050600a82611a3c9190613123565b9150611a19565b60008167ffffffffffffffff811115611a85577f4e487b7100000000000000000000000000000000000000000000000000000000600052604160045260246000fd5b6040519080825280601f01601f191660200182016040528015611ab75781602001600182028036833780820191505090505b5090505b60008514611b6a57600182611ad091906131ae565b9150600a85611adf9190613344565b6030611aeb91906130cd565b60f81b818381518110611b27577f4e487b7100000000000000000000000000000000000000000000000000000000600052603260045260246000fd5b60200101907effffffffffffffffffffffffffffffffffffffffffffffffffffffffffffff1916908160001a905350600a85611b639190613123565b9450611abb565b8093505050505b919050565b600081604051602001611b899190612b9d565b6040516020818303038152906040528051906020012060001c9050919050565b611c3f81604051602401611bbd9190612fcb565b6040516020818303038152906040527ff5b1bba9000000000000000000000000000000000000000000000000000000007bffffffffffffffffffffffffffffffffffffffffffffffffffffffff19166020820180517bffffffffffffffffffffffffffffffffffffffffffffffffffffffff8381831617835250505050611ec9565b50565b8173ffffffffffffffffffffffffffffffffffffffff168373ffffffffffffffffffffffffffffffffffffffff161415611cb1576040517f08c379a0000000000000000000000000000000000000000000000000000000008152600401611ca890612e4b565b60405180910390fd5b80600560008573ffffffffffffffffffffffffffffffffffffffff1673ffffffffffffffffffffffffffffffffffffffff16815260200190815260200160002060008473ffffffffffffffffffffffffffffffffffffffff1673ffffffffffffffffffffffffffffffffffffffff16815260200190815260200160002060006101000a81548160ff0219169083151502179055508173ffffffffffffffffffffffffffffffffffffffff168373ffffffffffffffffffffffffffffffffffffffff167f17307eab39ab6107e8899845ad3d59bd9653f200f220920489ca2b5937696c3183604051611da29190612d8e565b60405180910390a3505050565b611dba848484611762565b611dc684848484611f57565b611e05576040517f08c379a0000000000000000000000000000000000000000000000000000000008152600401611dfc90612dcb565b60405180910390fd5b50505050565b606060405180602001604052806000815250905090565b6060611e2d82611269565b611e6c576040517f08c379a0000000000000000000000000000000000000000000000000000000008152600401611e6390612f6b565b60405180910390fd5b6000611e76611e0b565b90506000815111611e965760405180602001604052806000815250611ec1565b80611ea0846119c9565b604051602001611eb1929190612bb4565b6040516020818303038152906040525b915050919050565b60008151905060006a636f6e736f6c652e6c6f679050602083016000808483855afa5050505050565b611efc83836120ee565b611f096000848484611f57565b611f48576040517f08c379a0000000000000000000000000000000000000000000000000000000008152600401611f3f90612dcb565b60405180910390fd5b505050565b505050565b505050565b6000611f788473ffffffffffffffffffffffffffffffffffffffff166122c8565b156120e1578373ffffffffffffffffffffffffffffffffffffffff1663150b7a02611fa16112d5565b8786866040518563ffffffff1660e01b8152600401611fc39493929190612d20565b602060405180830381600087803b158015611fdd57600080fd5b505af192505050801561200e57506040513d601f19601f8201168201806040525081019061200b919061262f565b60015b612091573d806000811461203e576040519150601f19603f3d011682016040523d82523d6000602084013e612043565b606091505b50600081511415612089576040517f08c379a000000000000000000000000000000000000000000000000000000000815260040161208090612dcb565b60405180910390fd5b805181602001fd5b63150b7a0260e01b7bffffffffffffffffffffffffffffffffffffffffffffffffffffffff1916817bffffffffffffffffffffffffffffffffffffffffffffffffffffffff1916149150506120e6565b600190505b949350505050565b600073ffffffffffffffffffffffffffffffffffffffff168273ffffffffffffffffffffffffffffffffffffffff16141561215e576040517f08c379a000000000000000000000000000000000000000000000000000000000815260040161215590612f0b565b60405180910390fd5b61216781611269565b156121a7576040517f08c379a000000000000000000000000000000000000000000000000000000000815260040161219e90612e0b565b60405180910390fd5b6121b360008383611f4d565b6001600360008473ffffffffffffffffffffffffffffffffffffffff1673ffffffffffffffffffffffffffffffffffffffff168152602001908152602001600020600082825461220391906130cd565b92505081905550816002600083815260200190815260200160002060006101000a81548173ffffffffffffffffffffffffffffffffffffffff021916908373ffffffffffffffffffffffffffffffffffffffff160217905550808273ffffffffffffffffffffffffffffffffffffffff16600073ffffffffffffffffffffffffffffffffffffffff167fddf252ad1be2c89b69c2b068fc378daa952ba7f163c4a11628f55a4df523b3ef60405160405180910390a46122c460008383611f52565b5050565b6000808273ffffffffffffffffffffffffffffffffffffffff163b119050919050565b8280546122f790613298565b90600052602060002090601f0160209004810192826123195760008555612360565b82601f1061233257805160ff1916838001178555612360565b82800160010185558215612360579182015b8281111561235f578251825591602001919060010190612344565b5b50905061236d9190612371565b5090565b5b8082111561238a576000816000905550600101612372565b5090565b60006123a161239c8461300b565b612fe6565b9050828152602081018484840111156123b957600080fd5b6123c4848285613256565b509392505050565b6000813590506123db81613a7a565b92915050565b6000813590506123f081613a91565b92915050565b60008135905061240581613aa8565b92915050565b60008151905061241a81613aa8565b92915050565b600082601f83011261243157600080fd5b813561244184826020860161238e565b91505092915050565b60008135905061245981613abf565b92915050565b60006020828403121561247157600080fd5b600061247f848285016123cc565b91505092915050565b6000806040838503121561249b57600080fd5b60006124a9858286016123cc565b92505060206124ba858286016123cc565b9150509250929050565b6000806000606084860312156124d957600080fd5b60006124e7868287016123cc565b93505060206124f8868287016123cc565b92505060406125098682870161244a565b9150509250925092565b6000806000806080858703121561252957600080fd5b6000612537878288016123cc565b9450506020612548878288016123cc565b93505060406125598782880161244a565b925050606085013567ffffffffffffffff81111561257657600080fd5b61258287828801612420565b91505092959194509250565b600080604083850312156125a157600080fd5b60006125af858286016123cc565b92505060206125c0858286016123e1565b9150509250929050565b600080604083850312156125dd57600080fd5b60006125eb858286016123cc565b92505060206125fc8582860161244a565b9150509250929050565b60006020828403121561261857600080fd5b6000612626848285016123f6565b91505092915050565b60006020828403121561264157600080fd5b600061264f8482850161240b565b91505092915050565b60006020828403121561266a57600080fd5b60006126788482850161244a565b91505092915050565b600061268d8383612b7f565b60208301905092915050565b6126a2816131e2565b82525050565b60006126b382613061565b6126bd818561308f565b93506126c88361303c565b8060005b838110156126f95781516126e08882612681565b97506126eb83613082565b9250506001810190506126cc565b5085935050505092915050565b61270f816131f4565b82525050565b60006127208261306c565b61272a81856130a0565b935061273a818560208601613265565b61274381613431565b840191505092915050565b600061275982613077565b61276381856130b1565b9350612773818560208601613265565b61277c81613431565b840191505092915050565b600061279282613077565b61279c81856130c2565b93506127ac818560208601613265565b80840191505092915050565b600081546127c581613298565b6127cf81866130c2565b945060018216600081146127ea57600181146127fb5761282e565b60ff1983168652818601935061282e565b6128048561304c565b60005b8381101561282657815481890152600182019150602081019050612807565b838801955050505b50505092915050565b60006128446032836130b1565b915061284f82613442565b604082019050919050565b60006128676025836130b1565b915061287282613491565b604082019050919050565b600061288a601c836130b1565b9150612895826134e0565b602082019050919050565b60006128ad600a836130c2565b91506128b882613509565b600a82019050919050565b60006128d06024836130b1565b91506128db82613532565b604082019050919050565b60006128f36019836130b1565b91506128fe82613581565b602082019050919050565b60006129166063836130c2565b9150612921826135aa565b606382019050919050565b6000612939600b836130c2565b915061294482613645565b600b82019050919050565b600061295c602c836130b1565b91506129678261366e565b604082019050919050565b600061297f600d836130c2565b915061298a826136bd565b600d82019050919050565b60006129a26038836130b1565b91506129ad826136e6565b604082019050919050565b60006129c5602a836130b1565b91506129d082613735565b604082019050919050565b60006129e86029836130b1565b91506129f382613784565b604082019050919050565b6000612a0b602e836130b1565b9150612a16826137d3565b604082019050919050565b6000612a2e6002836130c2565b9150612a3982613822565b600282019050919050565b6000612a516020836130b1565b9150612a5c8261384b565b602082019050919050565b6000612a746031836130b1565b9150612a7f82613874565b604082019050919050565b6000612a97602c836130b1565b9150612aa2826138c3565b604082019050919050565b6000612aba602f836130b1565b9150612ac582613912565b604082019050919050565b6000612add600a836130c2565b9150612ae882613961565b600a82019050919050565b6000612b006021836130b1565b9150612b0b8261398a565b604082019050919050565b6000612b23600a836130c2565b9150612b2e826139d9565b600a82019050919050565b6000612b46601d836130c2565b9150612b5182613a02565b601d82019050919050565b6000612b696031836130b1565b9150612b7482613a2b565b604082019050919050565b612b888161324c565b82525050565b612b978161324c565b82525050565b6000612ba98284612787565b915081905092915050565b6000612bc08285612787565b9150612bcc8284612787565b91508190509392505050565b6000612be48286612787565b9150612bf08285612787565b9150612bfc8284612787565b9150819050949350505050565b6000612c1582856127b8565b9150612c218284612787565b9150612c2c82612972565b91508190509392505050565b6000612c43826128a0565b9150612c4f8284612787565b915081905092915050565b6000612c658261292c565b9150612c718284612787565b915081905092915050565b6000612c8782612ad0565b9150612c938285612787565b9150612c9e82612909565b9150612caa8284612787565b9150612cb582612a21565b91508190509392505050565b6000612ccc82612b16565b9150612cd88284612787565b915081905092915050565b6000612cee82612b39565b9150612cfa8284612787565b915081905092915050565b6000602082019050612d1a6000830184612699565b92915050565b6000608082019050612d356000830187612699565b612d426020830186612699565b612d4f6040830185612b8e565b8181036060830152612d618184612715565b905095945050505050565b60006020820190508181036000830152612d8681846126a8565b905092915050565b6000602082019050612da36000830184612706565b92915050565b60006020820190508181036000830152612dc3818461274e565b905092915050565b60006020820190508181036000830152612de481612837565b9050919050565b60006020820190508181036000830152612e048161285a565b9050919050565b60006020820190508181036000830152612e248161287d565b9050919050565b60006020820190508181036000830152612e44816128c3565b9050919050565b60006020820190508181036000830152612e64816128e6565b9050919050565b60006020820190508181036000830152612e848161294f565b9050919050565b60006020820190508181036000830152612ea481612995565b9050919050565b60006020820190508181036000830152612ec4816129b8565b9050919050565b60006020820190508181036000830152612ee4816129db565b9050919050565b60006020820190508181036000830152612f04816129fe565b9050919050565b60006020820190508181036000830152612f2481612a44565b9050919050565b60006020820190508181036000830152612f4481612a67565b9050919050565b60006020820190508181036000830152612f6481612a8a565b9050919050565b60006020820190508181036000830152612f8481612aad565b9050919050565b60006020820190508181036000830152612fa481612af3565b9050919050565b60006020820190508181036000830152612fc481612b5c565b9050919050565b6000602082019050612fe06000830184612b8e565b92915050565b6000612ff0613001565b9050612ffc82826132ca565b919050565b6000604051905090565b600067ffffffffffffffff82111561302657613025613402565b5b61302f82613431565b9050602081019050919050565b6000819050602082019050919050565b60008190508160005260206000209050919050565b600081519050919050565b600081519050919050565b600081519050919050565b6000602082019050919050565b600082825260208201905092915050565b600082825260208201905092915050565b600082825260208201905092915050565b600081905092915050565b60006130d88261324c565b91506130e38361324c565b9250827fffffffffffffffffffffffffffffffffffffffffffffffffffffffffffffffff0382111561311857613117613375565b5b828201905092915050565b600061312e8261324c565b91506131398361324c565b925082613149576131486133a4565b5b828204905092915050565b600061315f8261324c565b915061316a8361324c565b9250817fffffffffffffffffffffffffffffffffffffffffffffffffffffffffffffffff04831182151516156131a3576131a2613375565b5b828202905092915050565b60006131b98261324c565b91506131c48361324c565b9250828210156131d7576131d6613375565b5b828203905092915050565b60006131ed8261322c565b9050919050565b60008115159050919050565b60007fffffffff0000000000000000000000000000000000000000000000000000000082169050919050565b600073ffffffffffffffffffffffffffffffffffffffff82169050919050565b6000819050919050565b82818337600083830152505050565b60005b83811015613283578082015181840152602081019050613268565b83811115613292576000848401525b50505050565b600060028204905060018216806132b057607f821691505b602082108114156132c4576132c36133d3565b5b50919050565b6132d382613431565b810181811067ffffffffffffffff821117156132f2576132f1613402565b5b80604052505050565b60006133068261324c565b91507fffffffffffffffffffffffffffffffffffffffffffffffffffffffffffffffff82141561333957613338613375565b5b600182019050919050565b600061334f8261324c565b915061335a8361324c565b92508261336a576133696133a4565b5b828206905092915050565b7f4e487b7100000000000000000000000000000000000000000000000000000000600052601160045260246000fd5b7f4e487b7100000000000000000000000000000000000000000000000000000000600052601260045260246000fd5b7f4e487b7100000000000000000000000000000000000000000000000000000000600052602260045260246000fd5b7f4e487b7100000000000000000000000000000000000000000000000000000000600052604160045260246000fd5b6000601f19601f8301169050919050565b7f4552433732313a207472616e7366657220746f206e6f6e20455243373231526560008201527f63656976657220696d706c656d656e7465720000000000000000000000000000602082015250565b7f4552433732313a207472616e736665722066726f6d20696e636f72726563742060008201527f6f776e6572000000000000000000000000000000000000000000000000000000602082015250565b7f4552433732313a20746f6b656e20616c7265616479206d696e74656400000000600082015250565b7f54484952445f574f524400000000000000000000000000000000000000000000600082015250565b7f4552433732313a207472616e7366657220746f20746865207a65726f2061646460008201527f7265737300000000000000000000000000000000000000000000000000000000602082015250565b7f4552433732313a20617070726f766520746f2063616c6c657200000000000000600082015250565b7f222c20226465736372697074696f6e223a20224120686967686c79206163636c60008201527f61696d656420636f6c6c656374696f6e206f6620737175617265732e222c202260208201527f696d616765223a2022646174613a696d6167652f7376672b786d6c3b6261736560408201527f36342c0000000000000000000000000000000000000000000000000000000000606082015250565b7f5345434f4e445f574f5244000000000000000000000000000000000000000000600082015250565b7f4552433732313a206f70657261746f7220717565727920666f72206e6f6e657860008201527f697374656e7420746f6b656e0000000000000000000000000000000000000000602082015250565b7f3c2f746578743e3c2f7376673e00000000000000000000000000000000000000600082015250565b7f4552433732313a20617070726f76652063616c6c6572206973206e6f74206f7760008201527f6e6572206e6f7220617070726f76656420666f7220616c6c0000000000000000602082015250565b7f4552433732313a2062616c616e636520717565727920666f7220746865207a6560008201527f726f206164647265737300000000000000000000000000000000000000000000602082015250565b7f4552433732313a206f776e657220717565727920666f72206e6f6e657869737460008201527f656e7420746f6b656e0000000000000000000000000000000000000000000000602082015250565b7f45524337323155524953746f726167653a2055524920736574206f66206e6f6e60008201527f6578697374656e7420746f6b656e000000000000000000000000000000000000602082015250565b7f227d000000000000000000000000000000000000000000000000000000000000600082015250565b7f4552433732313a206d696e7420746f20746865207a65726f2061646472657373600082015250565b7f45524337323155524953746f726167653a2055524920717565727920666f722060008201527f6e6f6e6578697374656e7420746f6b656e000000000000000000000000000000602082015250565b7f4552433732313a20617070726f76656420717565727920666f72206e6f6e657860008201527f697374656e7420746f6b656e0000000000000000000000000000000000000000602082015250565b7f4552433732314d657461646174613a2055524920717565727920666f72206e6f60008201527f6e6578697374656e7420746f6b656e0000000000000000000000000000000000602082015250565b7f7b226e616d65223a202200000000000000000000000000000000000000000000600082015250565b7f4552433732313a20617070726f76616c20746f2063757272656e74206f776e6560008201527f7200000000000000000000000000000000000000000000000000000000000000602082015250565b7f46495253545f574f524400000000000000000000000000000000000000000000600082015250565b7f646174613a6170706c69636174696f6e2f6a736f6e3b6261736536342c000000600082015250565b7f4552433732313a207472616e736665722063616c6c6572206973206e6f74206f60008201527f776e6572206e6f7220617070726f766564000000000000000000000000000000602082015250565b613a83816131e2565b8114613a8e57600080fd5b50565b613a9a816131f4565b8114613aa557600080fd5b50565b613ab181613200565b8114613abc57600080fd5b50565b613ac88161324c565b8114613ad357600080fd5b5056fe4142434445464748494a4b4c4d4e4f505152535455565758595a6162636465666768696a6b6c6d6e6f707172737475767778797a303132333435363738392b2fa264697066735822122025b5ec09f1180b553262d4d4c3c3ce55aea96d547d02964f9d508ac37601aea564736f6c634300080100333c73766720786d6c6e733d27687474703a2f2f7777772e77332e6f72672f323030302f73766727207072657365727665417370656374526174696f3d27784d696e594d696e206d656574272076696577426f783d273020302033353020333530273e3c7374796c653e2e62617365207b2066696c6c3a2077686974653b20666f6e742d66616d696c793a2073657269663b20666f6e742d73697a653a20323470783b207d3c2f7374796c653e3c726563742077696474683d273130302527206865696768743d2731303025272066696c6c3d27626c61636b27202f3e3c7465787420783d273530252720793d273530252720636c6173733d27626173652720646f6d696e616e742d626173656c696e653d276d6964646c652720746578742d616e63686f723d276d6964646c65273e",
  "linkReferences": {},
  "deployedLinkReferences": {}
}